{
  "contractName": "ERC721Connector",
  "abi": [
    {
      "inputs": [
        {
          "internalType": "string",
          "name": "name",
          "type": "string"
        },
        {
          "internalType": "string",
          "name": "symbol",
          "type": "string"
        }
      ],
      "stateMutability": "nonpayable",
      "type": "constructor"
    },
    {
      "anonymous": false,
      "inputs": [
        {
          "indexed": true,
          "internalType": "address",
          "name": "from",
          "type": "address"
        },
        {
          "indexed": true,
          "internalType": "address",
          "name": "to",
          "type": "address"
        },
        {
          "indexed": true,
          "internalType": "uint256",
          "name": "tokenId",
          "type": "uint256"
        }
      ],
      "name": "Transfer",
      "type": "event"
    },
    {
      "inputs": [
        {
          "internalType": "address",
          "name": "_owner",
          "type": "address"
        }
      ],
      "name": "balanceOf",
      "outputs": [
        {
          "internalType": "uint256",
          "name": "",
          "type": "uint256"
        }
      ],
      "stateMutability": "view",
      "type": "function"
    },
    {
      "inputs": [],
      "name": "name",
      "outputs": [
        {
          "internalType": "string",
          "name": "",
          "type": "string"
        }
      ],
      "stateMutability": "view",
      "type": "function"
    },
    {
      "inputs": [
        {
          "internalType": "uint256",
          "name": "_tokenId",
          "type": "uint256"
        }
      ],
      "name": "ownerOf",
      "outputs": [
        {
          "internalType": "address",
          "name": "",
          "type": "address"
        }
      ],
      "stateMutability": "view",
      "type": "function"
    },
    {
      "inputs": [],
      "name": "symbol",
      "outputs": [
        {
          "internalType": "string",
          "name": "",
          "type": "string"
        }
      ],
      "stateMutability": "view",
      "type": "function"
    },
    {
      "inputs": [
        {
          "internalType": "uint256",
          "name": "index",
          "type": "uint256"
        }
      ],
      "name": "tokenByIndex",
      "outputs": [
        {
          "internalType": "uint256",
          "name": "",
          "type": "uint256"
        }
      ],
      "stateMutability": "view",
      "type": "function"
    },
    {
      "inputs": [
        {
          "internalType": "address",
          "name": "owner",
          "type": "address"
        },
        {
          "internalType": "uint256",
          "name": "index",
          "type": "uint256"
        }
      ],
      "name": "tokenOfOwnerByIndex",
      "outputs": [
        {
          "internalType": "uint256",
          "name": "",
          "type": "uint256"
        }
      ],
      "stateMutability": "view",
      "type": "function"
    },
    {
      "inputs": [],
      "name": "totalSupply",
      "outputs": [
        {
          "internalType": "uint256",
          "name": "",
          "type": "uint256"
        }
      ],
      "stateMutability": "view",
      "type": "function"
    }
  ],
  "bytecode": "0x60806040523480156200001157600080fd5b5060405162000cf038038062000cf08339818101604052810190620000379190620002c2565b818181600090805190602001906200005192919062000075565b5080600190805190602001906200006a92919062000075565b5050505050620003ab565b828054620000839062000376565b90600052602060002090601f016020900481019282620000a75760008555620000f3565b82601f10620000c257805160ff1916838001178555620000f3565b82800160010185558215620000f3579182015b82811115620000f2578251825591602001919060010190620000d5565b5b50905062000102919062000106565b5090565b5b808211156200012157600081600090555060010162000107565b5090565b6000604051905090565b600080fd5b600080fd5b600080fd5b600080fd5b6000601f19601f8301169050919050565b7f4e487b7100000000000000000000000000000000000000000000000000000000600052604160045260246000fd5b6200018e8262000143565b810181811067ffffffffffffffff82111715620001b057620001af62000154565b5b80604052505050565b6000620001c562000125565b9050620001d3828262000183565b919050565b600067ffffffffffffffff821115620001f657620001f562000154565b5b620002018262000143565b9050602081019050919050565b60005b838110156200022e57808201518184015260208101905062000211565b838111156200023e576000848401525b50505050565b60006200025b6200025584620001d8565b620001b9565b9050828152602081018484840111156200027a57620002796200013e565b5b620002878482856200020e565b509392505050565b600082601f830112620002a757620002a662000139565b5b8151620002b984826020860162000244565b91505092915050565b60008060408385031215620002dc57620002db6200012f565b5b600083015167ffffffffffffffff811115620002fd57620002fc62000134565b5b6200030b858286016200028f565b925050602083015167ffffffffffffffff8111156200032f576200032e62000134565b5b6200033d858286016200028f565b9150509250929050565b7f4e487b7100000000000000000000000000000000000000000000000000000000600052602260045260246000fd5b600060028204905060018216806200038f57607f821691505b602082108103620003a557620003a462000347565b5b50919050565b61093580620003bb6000396000f3fe608060405234801561001057600080fd5b506004361061007d5760003560e01c80634f6ccce71161005b5780634f6ccce7146100ee5780636352211e1461011e57806370a082311461014e57806395d89b411461017e5761007d565b806306fdde031461008257806318160ddd146100a05780632f745c59146100be575b600080fd5b61008a61019c565b60405161009791906105ef565b60405180910390f35b6100a861022e565b6040516100b5919061062a565b60405180910390f35b6100d860048036038101906100d391906106d4565b61023b565b6040516100e5919061062a565b60405180910390f35b61010860048036038101906101039190610714565b6102eb565b604051610115919061062a565b60405180910390f35b61013860048036038101906101339190610714565b61035c565b6040516101459190610750565b60405180910390f35b6101686004803603810190610163919061076b565b61040d565b604051610175919061062a565b60405180910390f35b6101866104c4565b60405161019391906105ef565b60405180910390f35b6060600080546101ab906107c7565b80601f01602080910402602001604051908101604052809291908181526020018280546101d7906107c7565b80156102245780601f106101f957610100808354040283529160200191610224565b820191906000526020600020905b81548152906001019060200180831161020757829003601f168201915b5050505050905090565b6000600480549050905090565b60006102468361040d565b8210610287576040517f08c379a000000000000000000000000000000000000000000000000000000000815260040161027e90610844565b60405180910390fd5b600660008473ffffffffffffffffffffffffffffffffffffffff1673ffffffffffffffffffffffffffffffffffffffff16815260200190815260200160002082815481106102d8576102d7610864565b5b9060005260206000200154905092915050565b60006102f561022e565b8210610336576040517f08c379a000000000000000000000000000000000000000000000000000000000815260040161032d90610844565b60405180910390fd5b6004828154811061034a57610349610864565b5b90600052602060002001549050919050565b6000806002600084815260200190815260200160002060009054906101000a900473ffffffffffffffffffffffffffffffffffffffff169050600073ffffffffffffffffffffffffffffffffffffffff168173ffffffffffffffffffffffffffffffffffffffff1603610404576040517f08c379a00000000000000000000000000000000000000000000000000000000081526004016103fb906108df565b60405180910390fd5b80915050919050565b60008073ffffffffffffffffffffffffffffffffffffffff168273ffffffffffffffffffffffffffffffffffffffff160361047d576040517f08c379a0000000000000000000000000000000000000000000000000000000008152600401610474906108df565b60405180910390fd5b600360008373ffffffffffffffffffffffffffffffffffffffff1673ffffffffffffffffffffffffffffffffffffffff168152602001908152602001600020549050919050565b6060600180546104d3906107c7565b80601f01602080910402602001604051908101604052809291908181526020018280546104ff906107c7565b801561054c5780601f106105215761010080835404028352916020019161054c565b820191906000526020600020905b81548152906001019060200180831161052f57829003601f168201915b5050505050905090565b600081519050919050565b600082825260208201905092915050565b60005b83811015610590578082015181840152602081019050610575565b8381111561059f576000848401525b50505050565b6000601f19601f8301169050919050565b60006105c182610556565b6105cb8185610561565b93506105db818560208601610572565b6105e4816105a5565b840191505092915050565b6000602082019050818103600083015261060981846105b6565b905092915050565b6000819050919050565b61062481610611565b82525050565b600060208201905061063f600083018461061b565b92915050565b600080fd5b600073ffffffffffffffffffffffffffffffffffffffff82169050919050565b60006106758261064a565b9050919050565b6106858161066a565b811461069057600080fd5b50565b6000813590506106a28161067c565b92915050565b6106b181610611565b81146106bc57600080fd5b50565b6000813590506106ce816106a8565b92915050565b600080604083850312156106eb576106ea610645565b5b60006106f985828601610693565b925050602061070a858286016106bf565b9150509250929050565b60006020828403121561072a57610729610645565b5b6000610738848285016106bf565b91505092915050565b61074a8161066a565b82525050565b60006020820190506107656000830184610741565b92915050565b60006020828403121561078157610780610645565b5b600061078f84828501610693565b91505092915050565b7f4e487b7100000000000000000000000000000000000000000000000000000000600052602260045260246000fd5b600060028204905060018216806107df57607f821691505b6020821081036107f2576107f1610798565b5b50919050565b7f476c6f62616c20696e646578206973206f7574206f6620626f756e6473210000600082015250565b600061082e601e83610561565b9150610839826107f8565b602082019050919050565b6000602082019050818103600083015261085d81610821565b9050919050565b7f4e487b7100000000000000000000000000000000000000000000000000000000600052603260045260246000fd5b7f4f776e657220517565727920666f72206e6f6e65786973747320746f6b656e00600082015250565b60006108c9601f83610561565b91506108d482610893565b602082019050919050565b600060208201905081810360008301526108f8816108bc565b905091905056fea2646970667358221220b1a904d7dde999f60cbe9c55317abccafac997aa81ac37ac9ac492473e2ab29264736f6c634300080d0033",
  "immutableReferences": {},
  "source": "// SPDX-License-Identifier: MIT\r\npragma solidity ^0.8.0;\r\n\r\nimport './ERC721Metadata.sol';\r\nimport './ERC721Enumerable.sol'; \r\n\r\ncontract ERC721Connector is ERC721Metadata, ERC721Enumerable{\r\n     constructor(string memory name, string memory symbol)  ERC721Metadata(name, symbol)\r\n     {\r\n         \r\n     }\r\n}",
  "sourcePath": "D:\\Graphie\\nft-marketplace - Copy\\src\\contracts\\ERC721Connector.sol",
  "compiler": {
    "name": "solc",
    "version": "0.8.13+commit.abaa5c0e.Emscripten.clang"
  },
  "schemaVersion": "3.4.6",
  "updatedAt": "2022-03-27T18:15:41.330Z",
  "devdoc": {
    "kind": "dev",
    "methods": {
      "tokenByIndex(uint256)": {
        "returns": {
          "_0": "A count of valid NFTs tracked by this contract, where each one of  them has an assigned and queryable owner not equal to the zero address"
        }
      }
    },
    "version": 1
  },
  "userdoc": {
    "kind": "user",
    "methods": {
      "tokenByIndex(uint256)": {
        "notice": "Count NFTs tracked by this contract"
      }
    },
    "version": 1
  }
}