{
  "contractName": "ERC721Connector",
  "abi": [
    {
      "inputs": [
        {
          "internalType": "string",
          "name": "name",
          "type": "string"
        },
        {
          "internalType": "string",
          "name": "symbol",
          "type": "string"
        }
      ],
      "stateMutability": "nonpayable",
      "type": "constructor"
    },
    {
      "anonymous": false,
      "inputs": [
        {
          "indexed": true,
          "internalType": "address",
          "name": "from",
          "type": "address"
        },
        {
          "indexed": true,
          "internalType": "address",
          "name": "to",
          "type": "address"
        },
        {
          "indexed": true,
          "internalType": "uint256",
          "name": "tokenId",
          "type": "uint256"
        }
      ],
      "name": "Transfer",
      "type": "event"
    },
    {
      "inputs": [
        {
          "internalType": "address",
          "name": "_owner",
          "type": "address"
        }
      ],
      "name": "balanceOf",
      "outputs": [
        {
          "internalType": "uint256",
          "name": "",
          "type": "uint256"
        }
      ],
      "stateMutability": "view",
      "type": "function"
    },
    {
      "inputs": [],
      "name": "name",
      "outputs": [
        {
          "internalType": "string",
          "name": "",
          "type": "string"
        }
      ],
      "stateMutability": "view",
      "type": "function"
    },
    {
      "inputs": [
        {
          "internalType": "uint256",
          "name": "_tokenId",
          "type": "uint256"
        }
      ],
      "name": "ownerOf",
      "outputs": [
        {
          "internalType": "address",
          "name": "",
          "type": "address"
        }
      ],
      "stateMutability": "view",
      "type": "function"
    },
    {
      "inputs": [
        {
          "internalType": "string",
          "name": "newname",
          "type": "string"
        }
      ],
      "name": "setName",
      "outputs": [],
      "stateMutability": "nonpayable",
      "type": "function"
    },
    {
      "inputs": [],
      "name": "symbol",
      "outputs": [
        {
          "internalType": "string",
          "name": "",
          "type": "string"
        }
      ],
      "stateMutability": "view",
      "type": "function"
    },
    {
      "inputs": [
        {
          "internalType": "uint256",
          "name": "index",
          "type": "uint256"
        }
      ],
      "name": "tokenByIndex",
      "outputs": [
        {
          "internalType": "uint256",
          "name": "",
          "type": "uint256"
        }
      ],
      "stateMutability": "view",
      "type": "function"
    },
    {
      "inputs": [
        {
          "internalType": "address",
          "name": "owner",
          "type": "address"
        },
        {
          "internalType": "uint256",
          "name": "index",
          "type": "uint256"
        }
      ],
      "name": "tokenOfOwnerByIndex",
      "outputs": [
        {
          "internalType": "uint256",
          "name": "",
          "type": "uint256"
        }
      ],
      "stateMutability": "view",
      "type": "function"
    },
    {
      "inputs": [],
      "name": "totalSupply",
      "outputs": [
        {
          "internalType": "uint256",
          "name": "",
          "type": "uint256"
        }
      ],
      "stateMutability": "view",
      "type": "function"
    }
  ],
  "bytecode": "0x60806040523480156200001157600080fd5b5060405162000f6138038062000f618339818101604052810190620000379190620002c2565b818181600090805190602001906200005192919062000075565b5080600190805190602001906200006a92919062000075565b5050505050620003ab565b828054620000839062000376565b90600052602060002090601f016020900481019282620000a75760008555620000f3565b82601f10620000c257805160ff1916838001178555620000f3565b82800160010185558215620000f3579182015b82811115620000f2578251825591602001919060010190620000d5565b5b50905062000102919062000106565b5090565b5b808211156200012157600081600090555060010162000107565b5090565b6000604051905090565b600080fd5b600080fd5b600080fd5b600080fd5b6000601f19601f8301169050919050565b7f4e487b7100000000000000000000000000000000000000000000000000000000600052604160045260246000fd5b6200018e8262000143565b810181811067ffffffffffffffff82111715620001b057620001af62000154565b5b80604052505050565b6000620001c562000125565b9050620001d3828262000183565b919050565b600067ffffffffffffffff821115620001f657620001f562000154565b5b620002018262000143565b9050602081019050919050565b60005b838110156200022e57808201518184015260208101905062000211565b838111156200023e576000848401525b50505050565b60006200025b6200025584620001d8565b620001b9565b9050828152602081018484840111156200027a57620002796200013e565b5b620002878482856200020e565b509392505050565b600082601f830112620002a757620002a662000139565b5b8151620002b984826020860162000244565b91505092915050565b60008060408385031215620002dc57620002db6200012f565b5b600083015167ffffffffffffffff811115620002fd57620002fc62000134565b5b6200030b858286016200028f565b925050602083015167ffffffffffffffff8111156200032f576200032e62000134565b5b6200033d858286016200028f565b9150509250929050565b7f4e487b7100000000000000000000000000000000000000000000000000000000600052602260045260246000fd5b600060028204905060018216806200038f57607f821691505b602082108103620003a557620003a462000347565b5b50919050565b610ba680620003bb6000396000f3fe608060405234801561001057600080fd5b50600436106100885760003560e01c80636352211e1161005b5780636352211e1461012957806370a082311461015957806395d89b4114610189578063c47f0027146101a757610088565b806306fdde031461008d57806318160ddd146100ab5780632f745c59146100c95780634f6ccce7146100f9575b600080fd5b6100956101c3565b6040516100a291906106d3565b60405180910390f35b6100b3610255565b6040516100c0919061070e565b60405180910390f35b6100e360048036038101906100de91906107c7565b610262565b6040516100f0919061070e565b60405180910390f35b610113600480360381019061010e9190610807565b610312565b604051610120919061070e565b60405180910390f35b610143600480360381019061013e9190610807565b610383565b6040516101509190610843565b60405180910390f35b610173600480360381019061016e919061085e565b610434565b604051610180919061070e565b60405180910390f35b6101916104eb565b60405161019e91906106d3565b60405180910390f35b6101c160048036038101906101bc91906109c0565b61057d565b005b6060600080546101d290610a38565b80601f01602080910402602001604051908101604052809291908181526020018280546101fe90610a38565b801561024b5780601f106102205761010080835404028352916020019161024b565b820191906000526020600020905b81548152906001019060200180831161022e57829003601f168201915b5050505050905090565b6000600480549050905090565b600061026d83610434565b82106102ae576040517f08c379a00000000000000000000000000000000000000000000000000000000081526004016102a590610ab5565b60405180910390fd5b600660008473ffffffffffffffffffffffffffffffffffffffff1673ffffffffffffffffffffffffffffffffffffffff16815260200190815260200160002082815481106102ff576102fe610ad5565b5b9060005260206000200154905092915050565b600061031c610255565b821061035d576040517f08c379a000000000000000000000000000000000000000000000000000000000815260040161035490610ab5565b60405180910390fd5b6004828154811061037157610370610ad5565b5b90600052602060002001549050919050565b6000806002600084815260200190815260200160002060009054906101000a900473ffffffffffffffffffffffffffffffffffffffff169050600073ffffffffffffffffffffffffffffffffffffffff168173ffffffffffffffffffffffffffffffffffffffff160361042b576040517f08c379a000000000000000000000000000000000000000000000000000000000815260040161042290610b50565b60405180910390fd5b80915050919050565b60008073ffffffffffffffffffffffffffffffffffffffff168273ffffffffffffffffffffffffffffffffffffffff16036104a4576040517f08c379a000000000000000000000000000000000000000000000000000000000815260040161049b90610b50565b60405180910390fd5b600360008373ffffffffffffffffffffffffffffffffffffffff1673ffffffffffffffffffffffffffffffffffffffff168152602001908152602001600020549050919050565b6060600180546104fa90610a38565b80601f016020809104026020016040519081016040528092919081815260200182805461052690610a38565b80156105735780601f1061054857610100808354040283529160200191610573565b820191906000526020600020905b81548152906001019060200180831161055657829003601f168201915b5050505050905090565b8060009080519060200190610593929190610597565b5050565b8280546105a390610a38565b90600052602060002090601f0160209004810192826105c5576000855561060c565b82601f106105de57805160ff191683800117855561060c565b8280016001018555821561060c579182015b8281111561060b5782518255916020019190600101906105f0565b5b509050610619919061061d565b5090565b5b8082111561063657600081600090555060010161061e565b5090565b600081519050919050565b600082825260208201905092915050565b60005b83811015610674578082015181840152602081019050610659565b83811115610683576000848401525b50505050565b6000601f19601f8301169050919050565b60006106a58261063a565b6106af8185610645565b93506106bf818560208601610656565b6106c881610689565b840191505092915050565b600060208201905081810360008301526106ed818461069a565b905092915050565b6000819050919050565b610708816106f5565b82525050565b600060208201905061072360008301846106ff565b92915050565b6000604051905090565b600080fd5b600080fd5b600073ffffffffffffffffffffffffffffffffffffffff82169050919050565b60006107688261073d565b9050919050565b6107788161075d565b811461078357600080fd5b50565b6000813590506107958161076f565b92915050565b6107a4816106f5565b81146107af57600080fd5b50565b6000813590506107c18161079b565b92915050565b600080604083850312156107de576107dd610733565b5b60006107ec85828601610786565b92505060206107fd858286016107b2565b9150509250929050565b60006020828403121561081d5761081c610733565b5b600061082b848285016107b2565b91505092915050565b61083d8161075d565b82525050565b60006020820190506108586000830184610834565b92915050565b60006020828403121561087457610873610733565b5b600061088284828501610786565b91505092915050565b600080fd5b600080fd5b7f4e487b7100000000000000000000000000000000000000000000000000000000600052604160045260246000fd5b6108cd82610689565b810181811067ffffffffffffffff821117156108ec576108eb610895565b5b80604052505050565b60006108ff610729565b905061090b82826108c4565b919050565b600067ffffffffffffffff82111561092b5761092a610895565b5b61093482610689565b9050602081019050919050565b82818337600083830152505050565b600061096361095e84610910565b6108f5565b90508281526020810184848401111561097f5761097e610890565b5b61098a848285610941565b509392505050565b600082601f8301126109a7576109a661088b565b5b81356109b7848260208601610950565b91505092915050565b6000602082840312156109d6576109d5610733565b5b600082013567ffffffffffffffff8111156109f4576109f3610738565b5b610a0084828501610992565b91505092915050565b7f4e487b7100000000000000000000000000000000000000000000000000000000600052602260045260246000fd5b60006002820490506001821680610a5057607f821691505b602082108103610a6357610a62610a09565b5b50919050565b7f476c6f62616c20696e646578206973206f7574206f6620626f756e6473210000600082015250565b6000610a9f601e83610645565b9150610aaa82610a69565b602082019050919050565b60006020820190508181036000830152610ace81610a92565b9050919050565b7f4e487b7100000000000000000000000000000000000000000000000000000000600052603260045260246000fd5b7f4f776e657220517565727920666f72206e6f6e65786973747320746f6b656e00600082015250565b6000610b3a601f83610645565b9150610b4582610b04565b602082019050919050565b60006020820190508181036000830152610b6981610b2d565b905091905056fea2646970667358221220c9ac4f3366ff53cce559b1c5e8ff0c62a57903b1c70032eab317e0852f005a3964736f6c634300080d0033",
  "immutableReferences": {},
  "source": "// SPDX-License-Identifier: MIT\r\npragma solidity ^0.8.0;\r\n\r\nimport './ERC721Metadata.sol';\r\nimport './ERC721Enumerable.sol'; \r\n\r\ncontract ERC721Connector is ERC721Metadata, ERC721Enumerable{\r\n     constructor(string memory name, string memory symbol)  ERC721Metadata(name, symbol)\r\n     {\r\n         \r\n     }\r\n}",
  "sourcePath": "D:\\Graphie\\nft-web3-marketplace\\src\\contracts\\ERC721Connector.sol",
  "compiler": {
    "name": "solc",
    "version": "0.8.13+commit.abaa5c0e.Emscripten.clang"
  },
  "schemaVersion": "3.4.6",
  "updatedAt": "2022-03-28T14:57:29.311Z",
  "devdoc": {
    "kind": "dev",
    "methods": {
      "tokenByIndex(uint256)": {
        "returns": {
          "_0": "A count of valid NFTs tracked by this contract, where each one of  them has an assigned and queryable owner not equal to the zero address"
        }
      }
    },
    "version": 1
  },
  "userdoc": {
    "kind": "user",
    "methods": {
      "tokenByIndex(uint256)": {
        "notice": "Count NFTs tracked by this contract"
      }
    },
    "version": 1
  }
}